:100000000C9463000C948B000C948B000C94DE0514
:100010000C94DE050C94DE050C948B000C948B0084
:100020000C948B000C948B000C948B000C948B0024
:100030000C948B000C948B000C948B000C948B0014
:100040000C943C050C948B000C94AC050C94860528
:100050000C948B000C948B000C948B000C948B00F4
:100060000C948B000C948B000000000024002700EF
:100070002A0000000008000201000003040700003D
:1000800000000000000000000000230026002900FE
:1000900000000000250028002B00040404040404D0
:1000A0000404020202020202030303030303010227
:1000B00004081020408001020408102001020408F6
:1000C00010208406B20C11241FBECFEFD8E0DEBF93
:1000D000CDBF11E0A0E0B1E0E0E7FBE102C0059098
:1000E0000D92A235B107D9F723E0A2E5B1E001C036
:1000F0001D92AD30B207E1F710E0C2E6D0E004C0D7
:100100002197FE010E94640DC136D107C9F70E94F4
:1001100014080C94AB0D0C94000080913F02909158
:1001200040028230910538F0880F991F880F991F7F
:1001300005970197F1F70895833081F028F4813015
:1001400099F08230A9F008958730A9F08830C9F07D
:100150008430B1F4809180008F7D03C08091800055
:100160008F7780938000089584B58F7784BD08953C
:1001700084B58F7DFBCF8091B0008F778093B000E6
:1001800008958091B0008F7DF9CFCF93DF9390E0F9
:10019000FC01E255FF4F249186569F4FFC0184914C
:1001A0008823D1F090E0880F991FFC01E859FF4F98
:1001B000A591B491FC01E057FF4FC591D491611115
:1001C0000EC09FB7F8948C91E22FE0958E238C930C
:1001D0002881E223E8839FBFDF91CF9108958FB7F5
:1001E000F894EC91E22BEC938FBFF6CFCF93DF9393
:1001F000CCE3D2E061E089810E94C5000E948D00BD
:1002000060E088810E94C5000E948D0060E08981C5
:100210000E94C500DF91CF910C948D000F931F9326
:10022000CF93DF93D82FC8E061E080913C020E9419
:10023000C5000E948D000D2F10E060E0D0FF61E04E
:1002400080913D020E94C5000E948D0060E0809177
:100250003C020E94C5000E948D0015950795D02F85
:10026000C15011F761E080913C020E94C50060E03E
:1002700080913D020E94C5000E948D0060E0809147
:100280003C020E94C5000E948D0020913D0230E09A
:10029000F901EE58FF4F8491F901E255FF4FD491D7
:1002A000F901E656FF4FC491CC2339F181110E9428
:1002B0009C00EC2FF0E0EE0FFF1FEA57FF4FA591D7
:1002C000B491EC91ED23C1E009F4C0E0C11105C087
:1002D00061E080913D020E94C5000E948D0061E0B6
:1002E00080913C020E94C5000E948D008C2F81707D
:1002F000DF91CF911F910F910895C0E0E9CF61E0A8
:1003000080913D020E94C5000C948D009F92AF9297
:10031000BF92CF92DF92EF92FF920F931F93CF93F2
:10032000DF9300D000D0CDB7DEB7FB0130E087FF10
:1003300002C0819531E03097D1F5211138C0198282
:100340001A821B828FE38C830E947F0180E40E94CB
:100350000E010E94F6000E947F0180EC0E940E01B7
:1003600089810E940E018A810E940E018B810E9468
:100370000E018C810E940E010E94F6000E947F01F6
:1003800080913E028F7080580E940E010F900F9056
:100390000F900F90DF91CF911F910F91FF90EF90F1
:1003A000DF90CF90BF90AF909F900C94F6008E019D
:1003B0000F5F1F4F5E0193E0A91AB1087801C82EA4
:1003C000880FDD0880E4982ECF01B6010E941A0D37
:1003D000DC01982F81110DC0309759F4211109C00B
:1003E000D70113961C92332371F0F701938230E00A
:1003F0000AC0A050BF4F8C91D70113968C939111D6
:1004000002C0EF2B81F3FB0181E0E81AF108AE1482
:10041000BF04D1F698012C5F3F4FD8019D918D010B
:10042000FD013197842F8078892B8083440F2A1710
:100430003B0799F789CF2FB7F89460919B01709192
:100440009C0180919D0190919E012FBF0895AF92D4
:10045000BF92CF92DF92EF92FF920F931F93CF93B1
:10046000DF936C017B018B01040F151FEB015E0113
:10047000AE18BF08C017D10759F06991D601ED91A8
:10048000FC910190F081E02DC6010995892B79F747
:10049000C501DF91CF911F910F91FF90EF90DF90F9
:1004A000CF90BF90AF900895FC01538D448D252FC0
:1004B00030E0842F90E0821B930B541710F0CF96FE
:1004C000089501970895FC01918D828D981761F030
:1004D000A28DAE0FBF2FB11D5D968C91928D9F5F47
:1004E0009F73928F90E008958FEF9FEF0895FC0126
:1004F000918D828D981731F0828DE80FF11D858DD9
:1005000090E008958FEF9FEF0895FC01918D228D6B
:10051000892F90E0805C9F4F821B91098F739927F0
:1005200008958FE991E00E94850221E0892B09F46A
:1005300020E0822F089580E090E0892B29F00E942E
:10054000910281110C9400000895FC01A48DA80F64
:10055000B92FB11DA35ABF4F2C91848D90E0019605
:100560008F739927848FA689B7892C93A089B18925
:100570008C91837080648C93938D848D981306C0C6
:100580000288F389E02D80818F7D80830895EF922A
:10059000FF920F931F93CF93DF93EC0181E0888F3D
:1005A0009B8D8C8D98131AC0E889F989808185FF0D
:1005B00015C09FB7F894EE89FF896083E889F989AF
:1005C00080818370806480839FBF81E090E0DF91B1
:1005D000CF911F910F91FF90EF900895F62E0B8D04
:1005E00010E00F5F1F4F0F731127E02E8C8D8E11BF
:1005F0000CC00FB607FCFACFE889F989808185FF26
:10060000F5CFCE010E94A502F1CFEB8DEC0FFD2FAF
:10061000F11DE35AFF4FF0829FB7F8940B8FEA89E0
:10062000FB8980818062CFCFCF93DF93EC01888DEF
:100630008823B9F0AA89BB89E889F9898C9185FD5D
:1006400003C0808186FD0DC00FB607FCF7CF8C91EB
:1006500085FFF2CF808185FFEDCFCE010E94A502FC
:10066000E9CFDF91CF9108952091940130919501C8
:100670002817390771F4909192018091930198178E
:1006800041F0E0919201F0E0EE5AFE4F808190E05F
:1006900008958FEF9FEF08950895EF92FF920F93C3
:1006A0001F93CF93DF93DC015C96ED90FC905D97F8
:1006B000E114F10479F481E090E013969C938E9319
:1006C000129790E080E0DF91CF911F910F91FF9002
:1006D000EF9008955196ED91FC91529750968C9120
:1006E0005097982F90950FB75E962C915E97122F8A
:1006F000127021FD6095F8942081112319F1282BA7
:100700002083E7012197F1F728E0462F50E0308160
:1007100060FF1AC0382B3083E7012197F1F7BA0147
:1007200075956795215089F7112381F08081892380
:1007300080830FBF5C968D919C910197F1F781E0CA
:1007400090E0C1CF2923DCCF3923E5CF9081892BDD
:10075000EFCF20919401309195012817390761F46A
:10076000809193012091920190E0805C9F4F821BC9
:1007700091098F739927089590E080E00895209162
:1007800094013091950128173907B9F4909192019D
:1007900080919301981789F0E0919201F0E0EE5A70
:1007A000FE4F80812091920130E02F5F3F4F2F73E9
:1007B00033272093920190E008958FEF9FEF0895E3
:1007C00090E080E00895CF93DF93EC018A859B85CC
:1007D000AC85BD858E839F83A887B9870E941B0245
:1007E0006A837B838C839D8381E089838883DF9107
:1007F000CF910895CF93DF93EC018E819F81A885DF
:10080000B9858A839B83AC83BD830E941B026A8760
:100810007B878C879D8781E089838883DF91CF9157
:100820000895FC0101900020E9F73197AF01481BC2
:10083000590BBC018FE991E00C9427028F929F9293
:10084000AF92BF920F931F93CF93DF93CDB7DEB7D5
:10085000A1970FB6F894DEBF0FBECDBF19A24230EC
:1008600008F44AE08E010F5D1F4F842E912CB12CAD
:10087000A12CA50194010E94420DE62FB901CA01E5
:10088000EA30F4F4E05DD801EE938D01232B242BA4
:10089000252B79F790E080E0109719F0CD010E94A8
:1008A0001104A1960FB6F894DEBF0FBECDBFDF9145
:1008B000CF911F910F91BF90AF909F908F9008950F
:1008C000E95CE1CF2F923F924F925F926F927F92BD
:1008D0008F929F92AF92BF92CF92DF92EF92FF9250
:1008E0000F931F93CF93DF93D82FC92F8B010E94B3
:1008F000CE0C24E630E040E050E00E94420D490179
:100900009B01AC0160E876E988E990E00E940A0D5D
:100910006B017C01F80191828082ED2FFC2F2191E7
:10092000822F022E000C990BC0970A97C0F32E322B
:1009300039F51F0180E8882E86E9982E88E9A82ECF
:10094000B12C9AE0492E512C612C712CF101C191EE
:100950001F010C2E000CDD0BE097CA30D10580F48E
:10096000C501B401A30192010E94420D49015A013F
:10097000DE010E94750DC60ED71EE81EF91EE6CFD9
:10098000A5E0B0E0A70196010E946A0D6F5F7F4F5E
:100990008F4F9F4F23E030E040E050E00E94420D37
:1009A000F80122833383448355831682DF91CF91EC
:1009B0001F910F91FF90EF90DF90CF90BF90AF907D
:1009C0009F908F907F906F905F904F903F902F906F
:1009D00008951F93CF93DF93EC0118811D3209F422
:1009E0002196CE010E94CE0C9B01AC01A4E6B0E0A2
:1009F0000E946A0DAB01BC01FE012991822F022EDB
:100A0000000C990BC0970A97B8F32E3231F581810B
:100A1000082E000C990BC0978A309105F0F4AAE0DB
:100A2000A89F9001A99F300D1124C901330FAA0B73
:100A3000BB0B480F591F6A1F7B1F8281082E000CB9
:100A4000990BC0978A30910540F4092E000CAA0B2F
:100A5000BB0B480F591F6A1F7B1F1D3239F470955D
:100A60006095509541955F4F6F4F7F4FCB01BA0115
:100A7000DF91CF911F9108951F920F920FB60F92A1
:100A800011242F933F938F939F93AF93BF938091A4
:100A90009B0190919C01A0919D01B0919E0130918C
:100AA0009A0123E0230F2D3758F50196A11DB11DA2
:100AB00020939A0180939B0190939C01A0939D01A8
:100AC000B0939E018091960190919701A091980119
:100AD000B09199010196A11DB11D8093960190934B
:100AE0009701A0939801B0939901BF91AF919F9105
:100AF0008F913F912F910F900FBE0F901F901895DF
:100B000026E8230F0296A11DB11DD2CF1F920F928E
:100B10000FB60F9211242F933F934F935F936F93D0
:100B20007F938F939F93AF93BF93EF93FF938FE93F
:100B300091E00E94A502FF91EF91BF91AF919F912B
:100B40008F917F916F915F914F913F912F910F9076
:100B50000FBE0F901F9018951F920F920FB60F9215
:100B600011242F938F939F93EF93FF93E091AF0105
:100B7000F091B0018081E091B501F091B60182FD64
:100B80001BC090818091B8018F5F8F732091B90154
:100B9000821741F0E091B801F0E0E156FE4F958FE9
:100BA0008093B801FF91EF919F918F912F910F90BA
:100BB0000FBE0F901F9018958081F4CF1F920F9257
:100BC0000FB60F9211242F933F934F935F936F9320
:100BD0007F938F939F93AF93BF93EF93FF93E09196
:100BE0009401F0919501309749F0A685B7858585E8
:100BF000968D91FF14C09C918923A1F4FF91EF91F0
:100C0000BF91AF919F918F917F916F915F914F9124
:100C10003F912F910F900FBE0F901F9018959C91B0
:100C2000892361F7A389B4899C918589809589235B
:100C30008C93868997890197F1F7608D718DA685D0
:100C4000B785558538E020E0CB010197F1F7822F79
:100C500090E095958795282F4C91452309F02068C1
:100C6000315091F7868D81FD20958091930190E020
:100C700001968F73992730919201381799F0A091BE
:100C80009301B0E0AE5ABE4F2C9380939301828DB6
:100C9000938D0197F1F7A389B4898C919589892B5C
:100CA0008C93ACCF868D8160868FF1CF1F93CF93CD
:100CB000DF93282F30E0F901EE58FF4F8491F901BE
:100CC000E255FF4FD491F901E656FF4FC491CC2372
:100CD000A9F0162F81110E949C00EC2FF0E0EE0F7E
:100CE000FF1FE057FF4FA591B4918FB7F894EC9197
:100CF000111108C0D095DE23DC938FBFDF91CF9117
:100D00001F910895DE2BF8CF1092A2011092A1013D
:100D100088EE93E0A0E0B0E08093A3019093A4015B
:100D2000A093A501B093A60124E131E03093A00186
:100D300020939F0125EC30E03093AC012093AB0170
:100D400024EC30E03093AE012093AD0120EC30E094
:100D50003093B0012093AF0121EC30E03093B20129
:100D60002093B10122EC30E03093B4012093B30121
:100D700026EC30E03093B6012093B5011092B80113
:100D80001092B9011092BA011092BB011092600248
:100D90001092610210926302109262021092640239
:100DA0001092650210926602109267021092680219
:100DB00010926A021092690210926B0210926C02F9
:100DC00010926D0210926E0210926F0210927102D8
:100DD00010927002109272021092730210927402BA
:100DE0001092750210927602109278021092770299
:100DF0001092790210927A0210927B0210927C0279
:100E000010927D021092820210928302109284024C
:100E10001092850210928602109287021092900220
:100E200010929102109292021092930210929402E8
:100E30001092950210929E0210929F021092A402AC
:100E40001092A5021092A6021092A7021092AC0274
:100E50001092AD021092B2021092B3021092B4023C
:100E60001092B5021092BA021092BB021092C00208
:100E70001092C1021092C2021092C3021092C802D4
:100E80001092C9021092CE021092CF021092D0029C
:100E90001092D1021092D6021092D7021092DC0268
:100EA0001092DD021092DE021092DF021092E40234
:100EB0001092E50222E02093F5021092F6021092C1
:100EC000F7021092F8021092FA021092F9021092B0
:100ED000FC021092FB021092FD021092FE02109290
:100EE000FF0210920003109201031092020310926D
:100EF000030310920403109205031092060310924C
:100F00000703109208031092090310920A0310922B
:100F10000B0310920C031092E602109244021092FE
:100F200043028093450290934602A0934702B093F8
:100F3000480286E291E0909342028093410210922F
:100F400058021092570210925A02109259021092AF
:100F50005C0210925B0210925E0210925D02609140
:100F60005F026E7F6D7F60935F026695617081E0C6
:100F700068278CE00E94560661E08CE00E94C50064
:100F8000EAEBF0E0E491E0935102E6EAF0E0E4916C
:100F9000F0E0EE0FFF1FE057FF4F85919491909383
:100FA00053028093520260E08DE00E94C500809160
:100FB0005F0281FD04C061E08DE00E9456068DE075
:100FC00080934D02EBEBF0E0E491E0934E02E7EA10
:100FD000F0E0E491F0E0EE0FFF1FEA57FF4F85913C
:100FE00094919093500280934F0283E080933C024F
:100FF00082E080933D0284E690E0909340028093EB
:101000003F0260E083E00E94C50060E080913D0205
:101010000E94C50060E080913C020E94560660E09C
:1010200080913D020C945606789484B5826084BD0C
:1010300084B5816084BD85B5826085BD85B58160DC
:1010400085BD80916E00816080936E00109281005A
:101050008091810082608093810080918100816015
:1010600080938100809180008160809380008091D6
:10107000B10084608093B1008091B0008160809362
:10108000B00080917A00846080937A0080917A0029
:10109000826080937A0080917A00816080937A00E8
:1010A00080917A00806880937A001092C100E0916C
:1010B000AF01F091B00182E08083E091AB01F0914B
:1010C000AC011082E091AD01F091AE018FEC808314
:1010D0001092B701E091B301F091B40186E08083F2
:1010E000E091B101F091B201808180618083E09153
:1010F000B101F091B201808188608083E091B101FB
:10110000F091B201808180688083E091B101F0911B
:10111000B20180818F7D808310925C0210925B020D
:1011200010925A02109259021092580210925702CD
:101130008DE991E090935E0280935D0290914D0263
:10114000963108F047C02DEB30E0309358022093E1
:1011500057022BE931E030935A02209359022CE2D6
:1011600031E030935C0220935B022091680084E0C0
:10117000983048F031E09E3008F430E081E001C062
:10118000880F3A95EAF7822B809368002DE630E0CD
:10119000983050F02BE630E09E3030F02CE630E016
:1011A000963110F030E020E0309355022093540245
:1011B000292F30E0983008F03AC181E001C0880F53
:1011C0009A95EAF78093560280915D0290915E02B3
:1011D0000197F1F780915B0290915C02892B49F1B4
:1011E000E0919401F091950122E0E134F20709F1D8
:1011F000309739F0A389B4899C918589809589239A
:101200008C9380915F028E7F80935F021092930196
:101210001092920181E492E0909395018093940161
:10122000E0915402F0915502808190915602892BF1
:1012300080838FE080933E0290E1892E97E2992E81
:10124000A12CB12C24E6C22ED12CE12CF12C81E46E
:1012500092E00E94A903181619060CF0DEC233248E
:10126000339411E084E6282E81E492E00E94A903E1
:10127000181619060CF0D1C281E492E00E94BF0357
:10128000082F8091FD029091FE02A091FF02B09183
:1012900000030196A11DB11D8093FD029093FE02F3
:1012A000A093FF02B0930003043209F47DC2E091E1
:1012B000F70205320CF0C8C00A3019F00D3009F001
:1012C00081C2EF3008F03DC1F0E0EA51FD4F1082DD
:1012D0006090E502662009F436C12091E602822F73
:1012E000022E000C990B3FEB320F363008F0B8C0DD
:1012F000C7978295807F9091E702292F092E000CD5
:10130000330B4FEB490F463008F0B2C02753310979
:10131000820F9091E402891301C180910903909199
:101320000A03A0910B03B0910C030196A11DB11DFE
:101330008093090390930A03A0930B03B0930C03CB
:101340008091F802882399F0809101039091020323
:10135000A0910303B09104030196A11DB11D8093D8
:10136000010390930203A0930303B0930403C0917D
:10137000F502CC2309F485C0C130A1F582E892E0E2
:101380000E94FA0380E992E00E94FA038091F80239
:10139000882341F187E0E0E7F2E0A2E6B2E00190C5
:1013A0000D928A95E1F787E0E7E7F2E0A9E6B2E07F
:1013B00001900D928A95E1F70E941B0260937E02D4
:1013C00070937F028093800290938102C0936102A8
:1013D000C09360028EE992E00E94E3038CEA92E0FF
:1013E0000E94E303C091FB02D091FC02209709F414
:1013F00028C2E091FB02F091FC0266A177A18EA1C8
:101400009FA10E948C0D892B09F01BC2BE01CE0149
:1014100040960E94950D0E941B0268A379A38AA39F
:101420009BA33DA23CA20AA4DBA5C02DDFCF9E302A
:1014300040F42850310981E001C0880F2A95EAF76D
:10144000C1CE2E503109F7CF0A3209F43ACF0C320F
:1014500009F0B8C18091E40280278093E40231CF83
:101460002156263018F48755910943CFC09741CFB4
:101470009156963018F4275531094ACF2053310937
:1014800047CF80E992E00E94FA038091F802882316
:1014900021F187E0E0E7F2E0A2E6B2E001900D92F0
:1014A0008A95E1F787E0E7E7F2E0A9E6B2E001908C
:1014B0000D928A95E1F70E941B0260937E02709361
:1014C0007F028093800290938102109361021093B7
:1014D00060028AEB92E00E94E3038091D202909135
:1014E000D302A091D402B091D5028093CE02909302
:1014F000CF02A093D002B093D1020E941B0260934E
:10150000CA027093CB028093CC029093CD021093C9
:10151000C9021093C80286ED92E062CF8091050364
:1015200090910603A0910703B09108030196A11DB5
:10153000B11D8093050390930603A0930703B09316
:101540000803612C7EC19091F602911142C066E3BE
:1015500071E086EE92E00E948C0D892B41F06CE3E5
:1015600071E086EE92E00E948C0D892BD9F41093E5
:10157000F5028091F9029091FA029093FC02809317
:10158000FB02C091FB02D091FC022097D1F266EEE3
:1015900072E08EA19FA10E948C0D97FF4BC18AA57E
:1015A0009BA5EBCF62E471E086EE92E00E948C0D89
:1015B000892B41F068E471E086EE92E00E948C0D88
:1015C000892B19F41092F502D4CF82E08093F502B2
:1015D000D0CFE091F502E23009F448C08091E602F4
:1015E000882309F443C020E2E29FF0011124E92B93
:1015F0003197E932F10508F039C0EF5FF44F0C94F0
:10160000640D2A0B670B6E0B750B780BA60BAD0BDD
:10161000BA0BC70B360B360B360B360B360B360BAD
:10162000360B360B360B360B360B360B360B360BB2
:10163000360B360B360B360B360B360B360B360BA2
:10164000360B2A0B610B670B6E0B750B780B7F0B40
:101650008C0B990B86EE92E00E94E904609396024F
:10166000709397028093980290939902C091FB0225
:10167000D091FC026090F602209709F462CFE091CD
:10168000FB02F091FC0266A177A18EA19FA10E94AE
:101690008C0D892B09F055CF28A539A5712C621620
:1016A00073060CF44ECF2615370539F440E150E0AF
:1016B00066EE72E0CE010E949C0D0AA4DBA5C02D4F
:1016C000D9CF91E0813409F445C090E043C060E790
:1016D00072E086EE92E00E946204C8CF91E083350A
:1016E00009F090E090937602C1CF67E772E0F1CF06
:1016F00091E0873509F090E090937D02B7CF86EEB8
:1017000092E00E94E9046093A8027093A90280937A
:10171000AA029093AB02AACF86EE92E00E94E9045F
:101720006093B6027093B7028093B8029093B902A7
:101730009DCF86EE92E00E94CE0C6093880270935B
:10174000890280938A0290938B0290CF91E081333B
:101750000CF4BBCF9093F80289CF86EE92E00E9402
:10176000CE0C6093D2027093D3028093D4029093F4
:10177000D5027CCF86EE92E00E94E9046093E002FD
:101780007093E1028093E2029093E3026FCF86EEC2
:1017900092E00E94E9046093C4027093C5028093B2
:1017A000C6029093C70262CF1092F7021092F6021F
:1017B0001092E40282E08093F5021092E50210920A
:1017C000F80252CDEE3040F481E08E0F8093F702A4
:1017D000F0E0EA51FD4F00838091E502811144CD94
:1017E0008091E402782E70267092E4023DCD21E0D3
:1017F00048E069E770E08AE00E94860120E048E066
:101800006FE470E08AE00E94860120E048E063E730
:1018100070E08AE00E94860127CD80E090E0892B6D
:1018200009F415CD0E949102882309F410CD0E947D
:1018300000000DCD892B09F484CE1092FC02109289
:10184000FB028091F6028F5F8093F6021092F702FE
:1018500081E00A3209F080E08093E502662009F415
:1018600003CD80919002882311F210929102409052
:101870009202509093026090940270909502C3017E
:10188000B20120E432E44FE050E00E94420D822F8A
:1018900090E0459668E170E00E942E0DEC01C301D6
:1018A000B201A50194010E94420DCA01B901A7012C
:1018B00096010E94420D2C9E30012D9E700C112429
:1018C000660E771E84E391E0CA30D10514F080E5FE
:1018D00091E00E941104BE01DD0F880B990B4AE0D4
:1018E0000E941E046AE38FE991E00E94C7021092F1
:1018F0009102609192027091930280919402909172
:101900009502A50194010E94420DCA01B901A701E7
:1019100096010E94420D84E391E06A3010F080E568
:1019200091E00E94110410929102609192027091D4
:1019300093028091940290919502A50194010E94D6
:10194000420DCA01B901A70196010E94420D4AE069
:101950000E941E048EE491E00E94110421E040EFF9
:10196000B30157CF86E291E0909342028093410207
:1019700080919401909195018154924071F4E0918D
:101980005402F091550290818091560280958923EE
:101990008083109295011092940108951F93FC0189
:1019A00099278827BC01E89411911032E9F3193086
:1019B00010F01E30C8F31B3251F01D3249F4689408
:1019C00006C00E94F50C610F711D811D911D1191C2
:1019D00010531A30B0F33EF4909580957095619550
:1019E0007F4F8F4F9F4F1F910895592F482F372FAB
:1019F000262F660F771F881F991F660F771F881F76
:101A0000991F620F731F841F951F660F771F881F12
:101A1000991F0895DB018F939F930E946A0DBF91D8
:101A2000AF91A29F800D911DA39F900DB29F900D2D
:101A300011240895AA1BBB1B51E107C0AA1FBB1F9D
:101A4000A617B70710F0A61BB70B881F991F5A954A
:101A5000A9F780959095BC01CD01089597FB072EBD
:101A600016F4009407D077FD09D00E941A0D07FCE8
:101A700005D03EF4909581959F4F0895709561959E
:101A80007F4F0895A1E21A2EAA1BBB1BFD010DC0BA
:101A9000AA1FBB1FEE1FFF1FA217B307E407F5071E
:101AA00020F0A21BB30BE40BF50B661F771F881FFA
:101AB000991F1A9469F760957095809590959B0190
:101AC000AC01BD01CF010895EE0FFF1F0590F49109
:101AD000E02D09940E947D0DA59F900DB49F900D5F
:101AE000A49F800D911D11240895B7FF0C946A0DD9
:101AF0000E946A0D821B930B0895A29FB001B39FB1
:101B0000C001A39F700D811D1124911DB29F700D06
:101B1000811D1124911D0895FB01DC018D9101901F
:101B200080190110D9F3990B0895FB01DC01019094
:101B30000D920020E1F70895FB01DC014150504077
:101B400048F001900D920020C9F701C01D9241504C
:101B50005040E0F7089510E0C2E6D0E004C0FE0176
:101B60000E94640D2196C336D107C9F7F894FFCFC0
:101B70003F065B4F666D7D077F6F777C395E7971BD
:101B800000000000C702270254021403850263020A
:101B90007702000000004D032702E0034C03A90375
:101BA000BF03340330004750524D4300474E524D5F
:101BB0004300475047474100474E474741000D0A01
:021BC000000023
:00000001FF
