:100000000C9463000C948B000C948B000C94E10511
:100010000C94E1050C94E1050C948B000C948B007E
:100020000C948B000C948B000C948B000C948B0024
:100030000C948B000C948B000C948B000C948B0014
:100040000C943F050C948B000C94AF050C9489051F
:100050000C948B000C948B000C948B000C948B00F4
:100060000C948B000C948B000000000024002700EF
:100070002A0000000008000201000003040700003D
:1000800000000000000000000000230026002900FE
:1000900000000000250028002B00040404040404D0
:1000A0000404020202020202030303030303010227
:1000B00004081020408001020408102001020408F6
:1000C00010208706F70C11241FBECFEFD8E0DEBF4B
:1000D000CDBF11E0A0E0B1E0EAEFFBE102C0059086
:1000E0000D92A235B107D9F723E0A2E5B1E001C036
:1000F0001D92AE30B207E1F710E0C2E6D0E004C0D6
:100100002197FE010E94A90DC136D107C9F70E94AF
:1001100017080C94F00D0C9400008091400290910F
:1001200041028230910538F0880F991F880F991F7E
:1001300005970197F1F70895833081F028F4813015
:1001400099F08230A9F008958730A9F08830C9F07D
:100150008430B1F4809180008F7D03C08091800055
:100160008F7780938000089584B58F7784BD08953C
:1001700084B58F7DFBCF8091B0008F778093B000E6
:1001800008958091B0008F7DF9CFCF93DF9390E0F9
:10019000FC01E255FF4F249186569F4FFC0184914C
:1001A0008823D1F090E0880F991FFC01E859FF4F98
:1001B000A591B491FC01E057FF4FC591D491611115
:1001C0000EC09FB7F8948C91E22FE0958E238C930C
:1001D0002881E223E8839FBFDF91CF9108958FB7F5
:1001E000F894EC91E22BEC938FBFF6CFCF93DF9393
:1001F000CDE3D2E061E089810E94C5000E948D00BC
:1002000060E088810E94C5000E948D0060E08981C5
:100210000E94C500DF91CF910C948D000F931F9326
:10022000CF93DF93D82FC8E061E080913D020E9418
:10023000C5000E948D000D2F10E060E0D0FF61E04E
:1002400080913E020E94C5000E948D0060E0809176
:100250003D020E94C5000E948D0015950795D02F84
:10026000C15011F761E080913D020E94C50060E03D
:1002700080913E020E94C5000E948D0060E0809146
:100280003D020E94C5000E948D0020913E0230E098
:10029000F901EE58FF4F8491F901E255FF4FD491D7
:1002A000F901E656FF4FC491CC2339F181110E9428
:1002B0009C00EC2FF0E0EE0FFF1FEA57FF4FA591D7
:1002C000B491EC91ED23C1E009F4C0E0C11105C087
:1002D00061E080913E020E94C5000E948D0061E0B5
:1002E00080913D020E94C5000E948D008C2F81707C
:1002F000DF91CF911F910F910895C0E0E9CF61E0A8
:1003000080913E020E94C5000C948D009F92AF9296
:10031000BF92CF92DF92EF92FF920F931F93CF93F2
:10032000DF9300D000D0CDB7DEB7FB0130E087FF10
:1003300002C0819531E03097D1F5211138C0198282
:100340001A821B828FE38C830E947F0180E40E94CB
:100350000E010E94F6000E947F0180EC0E940E01B7
:1003600089810E940E018A810E940E018B810E9468
:100370000E018C810E940E010E94F6000E947F01F6
:1003800080913F028F7080580E940E010F900F9055
:100390000F900F90DF91CF911F910F91FF90EF90F1
:1003A000DF90CF90BF90AF909F900C94F6008E019D
:1003B0000F5F1F4F5E0193E0A91AB1087801C82EA4
:1003C000880FDD0880E4982ECF01B6010E945F0DF2
:1003D000DC01982F81110DC0309759F4211109C00B
:1003E000D70113961C92332371F0F701938230E00A
:1003F0000AC0A050BF4F8C91D70113968C939111D6
:1004000002C0EF2B81F3FB0181E0E81AF108EA1446
:10041000FB04D1F6442309F497CF98012C5F3F4F9A
:10042000D8019D918D01FD013197842F8078892B12
:100430008083440F2A173B0799F786CF2FB7F8948C
:1004400060919C0170919D0180919E0190919F010E
:100450002FBF08950895AF92BF92CF92DF92EF928F
:10046000FF920F931F93CF93DF936C017B018B015E
:10047000040F151FEB015E01AE18BF08C017D107AE
:1004800059F06991D601ED91FC910190F081E02D38
:10049000C6010995892B79F7C501DF91CF911F918D
:1004A0000F91FF90EF90DF90CF90BF90AF900895A5
:1004B000FC01538D448D252F30E0842F90E0821B6A
:1004C000930B541710F0CF96089501970895FC01EF
:1004D000918D828D981761F0A28DAE0FBF2FB11D47
:1004E0005D968C91928D9F5F9F73928F90E008959F
:1004F0008FEF9FEF0895FC01918D828D981731F059
:10050000828DE80FF11D858D90E008958FEF9FEFAC
:100510000895FC01918D228D892F90E0805C9F4F82
:10052000821B91098F739927089580EA91E00E94B8
:10053000890221E0892B09F420E0822F089580E0D0
:1005400090E0892B29F00E94950281110C94000003
:100550000895FC01A48DA80FB92FB11DA35ABF4F58
:100560002C91848D90E001968F739927848FA689B2
:10057000B7892C93A089B1898C91837080648C9306
:10058000938D848D981306C00288F389E02D8081B5
:100590008F7D80830895EF92FF920F931F93CF93E7
:1005A000DF93EC0181E0888F9B8D8C8D98131AC0AE
:1005B000E889F989808185FF15C09FB7F894EE8995
:1005C000FF896083E889F9898081837080648083F2
:1005D0009FBF81E090E0DF91CF911F910F91FF903D
:1005E000EF900895F62E0B8D10E00F5F1F4F0F73E5
:1005F0001127E02E8C8D8E110CC00FB607FCFACFA0
:10060000E889F989808185FFF5CFCE010E94A90292
:10061000F1CFEB8DEC0FFD2FF11DE35AFF4FF08270
:100620009FB7F8940B8FEA89FB8980818062CFCFD6
:10063000CF93DF93EC01888D8823B9F0AA89BB8919
:10064000E889F9898C9185FD03C0808186FD0DC004
:100650000FB607FCF7CF8C9185FFF2CF808185FF25
:10066000EDCFCE010E94A902E9CFDF91CF9108958D
:1006700020919401309195012817390771F49091D8
:10068000920180919301981741F0E0919201F0E07E
:10069000EE5AFE4F808190E008958FEF9FEF08950E
:1006A000EF92FF920F931F93CF93DF93DC015C9641
:1006B000ED90FC905D97E114F10479F481E090E015
:1006C00013969C938E93129790E080E0DF91CF91E8
:1006D0001F910F91FF90EF9008955196ED91FC912D
:1006E000529750968C915097982F90950FB75E9691
:1006F0002C915E97122F127021FD6095F894208145
:10070000112319F1282B2083E7012197F1F728E025
:10071000462F50E0308160FF1AC0382B3083E7014C
:100720002197F1F7BA0175956795215089F7112343
:1007300081F08081892380830FBF5C968D919C918D
:100740000197F1F781E090E0C1CF2923DCCF392375
:10075000E5CF9081892BEFCF2091940130919501C5
:100760002817390761F4809193012091920190E05C
:10077000805C9F4F821B91098F739927089590E0A9
:1007800080E0089520919401309195012817390750
:10079000B9F49091920180919301981789F0E091BA
:1007A0009201F0E0EE5AFE4F80812091920130E0FC
:1007B0002F5F3F4F2F7333272093920190E00895CE
:1007C0008FEF9FEF089590E080E00895CF93DF933F
:1007D000EC018A859B85AC85BD858E839F83A88728
:1007E000B9870E941E026A837B838C839D8381E08C
:1007F00089838883DF91CF910895CF93DF93EC01B4
:100800008E819F81A885B9858A839B83AC83BD83B4
:100810000E941E026A877B878C879D8781E089837F
:100820008883DF91CF910895FC0101900020E9F7C2
:100830003197AF01481B590BBC0180EA91E00C9441
:100840002B028F929F92AF92BF920F931F93CF93E1
:10085000DF93CDB7DEB7A1970FB6F894DEBF0FBE1A
:10086000CDBF19A2423008F44AE08E010F5D1F4F40
:10087000842E912CB12CA12CA50194010E94870DEE
:10088000E62FB901CA01EA30F4F4E05DD801EE9335
:100890008D01232B242B252B79F790E080E01097F6
:1008A00019F0CD010E941404A1960FB6F894DEBF92
:1008B0000FBECDBFDF91CF911F910F91BF90AF9031
:1008C0009F908F900895E95CE1CF2F923F924F92D5
:1008D0005F926F927F928F929F92AF92BF92CF92D0
:1008E000DF92EF92FF920F931F93CF93DF93D82F56
:1008F000C92F8B010E94130D24E630E040E050E048
:100900000E94870D49019B01AC0160E876E988E906
:1009100090E00E944F0D6B017C01F8019182808272
:10092000ED2FFC2F2191822F022E000C990BC097E6
:100930000A97C0F32E3239F51F0180E8882E86E928
:10094000982E88E9A82EB12C9AE0492E512C612CC2
:10095000712CF101C1911F010C2E000CDD0BE097F1
:10096000CA30D10580F4C501B401A30192010E94EF
:10097000870D49015A01DE010E94BA0DC60ED71E2D
:10098000E81EF91EE6CFA5E0B0E0A70196010E949F
:10099000AF0D6F5F7F4F8F4F9F4F23E030E040E000
:1009A00050E00E94870DF8012283338344835583EE
:1009B0001682DF91CF911F910F91FF90EF90DF9002
:1009C000CF90BF90AF909F908F907F906F905F90EF
:1009D0004F903F902F9008951F93CF93DF93EC019A
:1009E00018811D3209F42196CE010E94130D9B013E
:1009F000AC01A4E6B0E00E94AF0DAB01BC01FE016A
:100A00002991822F022E000C990BC0970A97B8F3F8
:100A10002E3231F58181082E000C990BC0978A3057
:100A20009105F0F4AAE0A89F9001A99F300D112430
:100A3000C901330FAA0BBB0B480F591F6A1F7B1F3D
:100A40008281082E000C990BC0978A30910540F4E2
:100A5000092E000CAA0BBB0B480F591F6A1F7B1FE6
:100A60001D3239F470956095509541955F4F6F4FE9
:100A70007F4FCB01BA01DF91CF911F9108951F9253
:100A80000F920FB60F9211242F933F938F939F9342
:100A9000AF93BF9380919C0190919D01A0919E0185
:100AA000B0919F0130919B0123E0230F2D3758F522
:100AB0000196A11DB11D20939B0180939C019093F1
:100AC0009D01A0939E01B0939F0180919701909109
:100AD0009801A0919901B0919A010196A11DB11DB3
:100AE0008093970190939801A0939901B0939A01F4
:100AF000BF91AF919F918F913F912F910F900FBE1A
:100B00000F901F90189526E8230F0296A11DB11D86
:100B1000D2CF1F920F920FB60F9211242F933F93B3
:100B20004F935F936F937F938F939F93AF93BF93F5
:100B3000EF93FF9380EA91E00E94A902FF91EF9169
:100B4000BF91AF919F918F917F916F915F914F91E5
:100B50003F912F910F900FBE0F901F9018951F92ED
:100B60000F920FB60F9211242F938F939F93EF93B1
:100B7000FF93E091B001F091B1018081E091B60165
:100B8000F091B70182FD1BC090818091B9018F5F08
:100B90008F732091BA01821741F0E091B901F0E022
:100BA000E056FE4F958F8093B901FF91EF919F9191
:100BB0008F912F910F900FBE0F901F9018958081ED
:100BC000F4CF1F920F920FB60F9211242F933F93E1
:100BD0004F935F936F937F938F939F93AF93BF9345
:100BE000EF93FF93E0919401F0919501309749F0D4
:100BF000A685B7858585968D91FF14C09C91892324
:100C0000A1F4FF91EF91BF91AF919F918F917F914F
:100C10006F915F914F913F912F910F900FBE0F9069
:100C20001F9018959C91892361F7A389B4899C91A1
:100C30008589809589238C93868997890197F1F717
:100C4000608D718DA685B785558538E020E0CB0194
:100C50000197F1F7822F90E095958795282F4C9179
:100C6000452309F02068315091F7868D81FD20954C
:100C70008091930190E001968F73992730919201B2
:100C8000381799F0A0919301B0E0AE5ABE4F2C9363
:100C900080939301828D938D0197F1F7A389B48995
:100CA0008C919589892B8C93ACCF868D8160868FB2
:100CB000F1CF1F93CF93DF93282F30E0F901EE5847
:100CC000FF4F8491F901E255FF4FD491F901E656A7
:100CD000FF4FC491CC23A9F0162F81110E949C00D4
:100CE000EC2FF0E0EE0FFF1FE057FF4FA591B491FE
:100CF0008FB7F894EC91111108C0D095DE23DC93E6
:100D00008FBFDF91CF911F910895DE2BF8CF109206
:100D1000A3011092A20188EE93E0A0E0B0E08093DE
:100D2000A4019093A501A093A601B093A70124E18B
:100D300031E03093A1012093A00125EC30E0309305
:100D4000AD012093AC0124EC30E03093AF0120934F
:100D5000AE0120EC30E03093B1012093B00121ECE2
:100D600030E03093B3012093B20122EC30E03093B5
:100D7000B5012093B40126EC30E03093B701209305
:100D8000B6011092B9011092BA011092BB011092F3
:100D9000BC011092610210926202109264021092E1
:100DA000630210926502109266021092670210921E
:100DB00068021092690210926B0210926A021092FD
:100DC0006C0210926D0210926E0210926F021092DD
:100DD00070021092720210927102109273021092BD
:100DE000740210927502109276021092770210929D
:100DF00079021092780210927A0210927B0210927D
:100E00007C0210927D0210927E0210928302109258
:100E1000840210928502109286021092870210922C
:100E200088021092910210929202109293021092F4
:100E30009402109295021092960210929F021092C4
:100E4000A0021092A5021092A6021092A702109280
:100E5000A8021092AD021092AE021092B30210924C
:100E6000B4021092B5021092B6021092BB02109218
:100E7000BC021092C1021092C2021092C3021092E0
:100E8000C4021092C9021092CA021092CF021092AC
:100E9000D0021092D1021092D2021092D702109278
:100EA000D8021092DD021092DE021092DF02109240
:100EB000E0021092E5021092E60222E02093F60290
:100EC0001092F7021092F8021092F9021092FB02AF
:100ED0001092FA021092FD021092FC021092FE0291
:100EE0001092FF021092000310920103109202036D
:100EF000109203031092040310920503109206034C
:100F000010920703109208031092090310920A032B
:100F100010920B0310920C0310920D031092E70233
:100F20001092450210924402809346029093470229
:100F3000A0934802B093490286E291E09093430265
:100F400080934202109259021092580210925B0252
:100F500010925A0210925D0210925C0210925F028F
:100F600010925E02609160026E7F6D7F60936002FE
:100F70006695617081E068278CE00E94590661E007
:100F80008CE00E94C500EAEBF0E0E491E0935202AD
:100F9000E6EAF0E0E491F0E0EE0FFF1FE057FF4FCC
:100FA00085919491909354028093530260E08DE078
:100FB0000E94C5008091600281FD04C061E08DE067
:100FC0000E9459068DE080934E02EBEBF0E0E49135
:100FD000E0934F02E7EAF0E0E491F0E0EE0FFF1F4C
:100FE000EA57FF4F8591949190935102809350025C
:100FF00083E080933D0282E080933E0284E690E0AD
:10100000909341028093400260E083E00E94C5001B
:1010100060E080913E020E94C50060E080913D0248
:101020000E94590660E080913E020C945906789423
:1010300084B5826084BD84B5816084BD85B58260DD
:1010400085BD85B5816085BD80916E00816080938E
:101050006E001092810080918100826080938100F7
:101060008091810081608093810080918000816007
:10107000809380008091B10084608093B100809162
:10108000B00081608093B00080917A00846080938A
:101090007A0080917A00826080937A0080917A0051
:1010A000816080937A0080917A00806880937A00D2
:1010B0001092C100E091B001F091B10182E0808313
:1010C000E091AC01F091AD011082E091AE01F091A0
:1010D000AF018FEC80831092B801E091B401F091E0
:1010E000B50186E08083E091B201F091B301808187
:1010F00080618083E091B201F091B30180818860CA
:101100008083E091B201F091B30180818068808397
:10111000E091B201F091B30180818F7D80831092C4
:101120005D0210925C0210925B0210925A021092C1
:101130005902109258028DE991E090935F028093DA
:101140005E0290914E02963108F047C02DEB30E0E0
:1011500030935902209358022BE931E030935B021F
:1011600020935A022CE231E030935D0220935C021E
:101170002091680084E0983048F031E09E3008F417
:1011800030E081E001C0880F3A95EAF7822B809326
:1011900068002DE630E0983050F02BE630E09E30CD
:1011A00030F02CE630E0963110F030E020E0309363
:1011B000560220935502292F30E0983008F03BC1A9
:1011C00081E001C0880F9A95EAF7809357028091D9
:1011D0005E0290915F020197F1F780915C0290911D
:1011E0005D02892B49F1E0919401F091950122E093
:1011F000E234F20709F1309739F0A389B4899C9160
:101200008589809589238C93809160028E7F80935D
:101210006002109293011092920182E492E0909306
:10122000950180939401E0915502F09156028081DE
:1012300090915702892B80838FE080933F0220E1B9
:10124000822E27E2922EA12CB12C34E6C32ED12C73
:10125000E12CF12C82E492E00E94AC0318161906EE
:101260000CF0DDC282E0382E11E094E6292E82E4F3
:1012700092E00E94AC03181619060CF0D0C282E46A
:1012800092E00E94C203082F8091FE029091FF021B
:10129000A0910003B09101030196A11DB11D80939F
:1012A000FE029093FF02A0930003B0930103043267
:1012B00009F47DC2E091F80205320CF0C9C00A3091
:1012C00019F00D3009F080C2EF3008F03EC1F0E0B7
:1012D000E951FD4F10826090E602662009F437C1A3
:1012E0002091E702822F022E000C990B3FEB320F68
:1012F000363008F0B9C0C7978295807F9091E80298
:10130000292F092E000C330B4FEB490F463008F004
:10131000B3C027533109820F9091E502891302C1AE
:1013200080910A0390910B03A0910C03B0910D03DF
:101330000196A11DB11D80930A0390930B03A09306
:101340000C03B0930D038091F902882399F08091EA
:10135000020390910303A0910403B0910503019649
:10136000A11DB11D8093020390930303A093040376
:10137000B0930503C091F602CC2309F486C0C130B6
:10138000A1F583E892E00E94FD0381E992E00E94CA
:10139000FD038091F902882341F187E0E1E7F2E063
:1013A000A3E6B2E001900D928A95E1F787E0E8E7C5
:1013B000F2E0AAE6B2E001900D928A95E1F70E9470
:1013C0001E0260937F02709380028093810290934B
:1013D0008202C0936202C09361028FE992E00E9490
:1013E000E6038DEA92E00E94E603C091FC02D091F0
:1013F000FD02209709F427C2E091FC02F091FD0262
:1014000066A177A18EA19FA10E94D10D892B09F021
:101410001AC2BE01CE0140960E94DA0D0E941E0241
:1014200068A379A38AA39BA381E08DA38CA30AA4BC
:10143000DBA5C02DDECF9E3040F42850310981E07D
:1014400001C0880F2A95EAF7C0CE2E503109F7CF98
:101450000A3209F439CF0C3209F0B6C18091E502A5
:1014600080278093E50230CF2156263018F4875527
:10147000910942CFC09740CF9156963018F4275526
:10148000310949CF2053310946CF81E992E00E94CA
:10149000FD038091F902882321F187E0E1E7F2E082
:1014A000A3E6B2E001900D928A95E1F787E0E8E7C4
:1014B000F2E0AAE6B2E001900D928A95E1F70E946F
:1014C0001E0260937F02709380028093810290934A
:1014D000820210936202109361028BEB92E00E94F1
:1014E000E6038091D3029091D402A091D502B091ED
:1014F000D6028093CF029093D002A093D102B093F2
:10150000D2020E941E026093CB027093CC028093A1
:10151000CD029093CE021093CA021093C90287EDB8
:1015200092E061CF8091060390910703A091080398
:10153000B09109030196A11DB11D809306039093FC
:101540000703A0930803B0930903612C7CC1909119
:10155000F702911141C066E371E087EE92E00E94CC
:10156000D10D892B41F06CE371E087EE92E00E948F
:10157000D10D892BD9F41093F6028091FA02909143
:10158000FB029093FD028093FC02C091FC02D0917B
:10159000FD022097D1F267EE72E08EA19FA10E941A
:1015A000D10D97FF49C18AA59BA5EBCF62E471E0FD
:1015B00087EE92E00E94D10D892B41F068E471E042
:1015C00087EE92E00E94D10D892B19F41092F60259
:1015D000D4CF3092F602D1CFE091F602E23009F496
:1015E00048C08091E702882309F443C020E2E29FCB
:1015F000F0011124E92B3197E932F10508F039C0E7
:10160000EC5FF44F0C94A90D2D0B6A0B710B780B4A
:101610007B0BA90BB00BBD0BCA0B390B390B390B6C
:10162000390B390B390B390B390B390B390B390B9A
:10163000390B390B390B390B390B390B390B390B8A
:10164000390B390B390B390B2D0B640B6A0B710BF2
:10165000780B7B0B820B8F0B9C0B87EE92E00E942A
:10166000EC04609397027093980280939902909390
:101670009A02C091FC02D091FD026090F70220977F
:1016800009F463CFE091FC02F091FD0266A177A11D
:101690008EA19FA10E94D10D892B09F056CF28A5BC
:1016A00039A5712C621673060CF44FCF2615370539
:1016B00039F440E150E067EE72E0CE010E94E10DA6
:1016C0000AA4DBA5C02DD9CF91E0813409F445C02F
:1016D00090E043C061E772E087EE92E00E9465040B
:1016E000C8CF91E0833509F090E090937702C1CFA5
:1016F00068E772E0F1CF91E0873509F090E09093D0
:101700007E02B7CF87EE92E00E94EC046093A902BC
:101710007093AA028093AB029093AC02AACF87EE9B
:1017200092E00E94EC046093B7027093B802809339
:10173000B9029093BA029DCF87EE92E00E94130DFA
:101740006093890270938A0280938B0290938C023B
:1017500090CF91E081330CF4BBCF9093F90289CF05
:1017600087EE92E00E94130D6093D3027093D4022F
:101770008093D5029093D6027CCF87EE92E00E94B0
:10178000EC046093E1027093E2028093E302909391
:10179000E4026FCF87EE92E00E94EC046093C502F2
:1017A0007093C6028093C7029093C80262CF1092D2
:1017B000F8021092F7021092E5023092F6021092AF
:1017C000E6021092F90253CDEE3040F481E08E0F24
:1017D0008093F802F0E0E951FD4F00838091E6022A
:1017E000811145CD8091E502782E70267092E50238
:1017F0003ECD21E048E069E770E08AE00E94860182
:1018000020E048E06FE470E08AE00E94860120E07A
:1018100048E063E770E08AE00E94860128CD80E01E
:1018200090E0892B09F416CD0E949502882309F4D3
:1018300011CD0E9400000ECD892B09F486CE1092A6
:10184000FD021092FC028091F7028F5F8093F702F5
:101850001092F80281E00A3209F080E08093E602FB
:10186000662009F404CD80919102882311F2109230
:101870009202409093025090940260909502709072
:101880009602C301B20120E432E44FE050E00E942E
:10189000870D822F90E0459668E170E00E94730DFD
:1018A000EC01C301B201A50194010E94870DCA0198
:1018B000B901A70196010E94870D2C9E30012D9E33
:1018C000700C1124660E771E84E391E0CA30D105B6
:1018D00014F080E591E00E941404BE01DD0F880B36
:1018E000990B4AE00E9421046AE380EA91E00E9499
:1018F000CB021092920260919302709194028091B7
:10190000950290919602A50194010E94870DCA014B
:10191000B901A70196010E94870D84E391E06A3026
:1019200010F080E591E00E94140410929202609100
:101930009302709194028091950290919602A50174
:1019400094010E94870DCA01B901A70196010E9466
:10195000870D4AE00E9421046AE380EA91E00E9438
:10196000CB02109292026091930270919402809146
:10197000950290919602A70196010E94870DCA01D7
:10198000B901A70196010E94870D84E391E06A30B6
:1019900010F080E591E00E94140410929202609190
:1019A0009302709194028091950290919602A70102
:1019B00096010E94870DCA01B901A70196010E94F4
:1019C000870D4AE00E9421048EE491E00E941404F5
:1019D000C091960140E0C11140EF21E0B3018AE0DF
:1019E0000E94860181E0C827C093960140CC86E220
:1019F00091E09093430280934202809194019091F0
:101A000095018254924071F4E0915502F091560292
:101A1000908180915702809589238083109295014F
:101A20001092940108951F93FC0199278827BC0107
:101A3000E89411911032E9F3193010F01E30C8F318
:101A40001B3251F01D3249F4689406C00E943A0DD1
:101A5000610F711D811D911D119110531A30B0F34A
:101A60003EF490958095709561957F4F8F4F9F4F75
:101A70001F910895592F482F372F262F660F771F54
:101A8000881F991F660F771F881F991F620F731F8A
:101A9000841F951F660F771F881F991F0895DB010C
:101AA0008F939F930E94AF0DBF91AF91A29F800D26
:101AB000911DA39F900DB29F900D11240895AA1B14
:101AC000BB1B51E107C0AA1FBB1FA617B70710F029
:101AD000A61BB70B881F991F5A95A9F7809590955B
:101AE000BC01CD01089597FB072E16F4009407D092
:101AF00077FD09D00E945F0D07FC05D03EF490955C
:101B000081959F4F0895709561957F4F0895A1E24B
:101B10001A2EAA1BBB1BFD010DC0AA1FBB1FEE1F67
:101B2000FF1FA217B307E407F50720F0A21BB30BB2
:101B3000E40BF50B661F771F881F991F1A9469F72E
:101B400060957095809590959B01AC01BD01CF018A
:101B50000895EE0FFF1F0590F491E02D09940E9467
:101B6000C20DA59F900DB49F900DA49F800D911D57
:101B700011240895B7FF0C94AF0D0E94AF0D821B86
:101B8000930B0895A29FB001B39FC001A39F700D56
:101B9000811D1124911DB29F700D811D1124911D75
:101BA0000895FB01DC018D91019080190110D9F39A
:101BB000990B0895FB01DC0101900D920020E1F7E3
:101BC0000895FB01DC014150504048F001900D9216
:101BD0000020C9F701C01D9241505040E0F7089520
:101BE00010E0C2E6D0E004C0FE010E94A90D2196DB
:0A1BF000C336D107C9F7F894FFCF00
:101BFA003F065B4F666D7D077F6F777C395E797133
:101C0A0000000000CB022B02580218038902670267
:101C1A007B020000000050032B02E3032A02AC03FC
:101C2A00C203380330004750524D4300474E524DCD
:101C3A004300475047474100474E474741000D0A76
:021C4A00000098
:00000001FF
